{
  "_format": "hh3-artifact-1",
  "contractName": "CommitRevealBounty",
  "sourceName": "contracts/CommitRevealBounty.sol",
  "abi": [
    {
      "anonymous": false,
      "inputs": [
        {
          "indexed": true,
          "internalType": "uint256",
          "name": "bountyId",
          "type": "uint256"
        },
        {
          "indexed": false,
          "internalType": "bytes",
          "name": "aiReview",
          "type": "bytes"
        }
      ],
      "name": "AllAnswersJudged",
      "type": "event"
    },
    {
      "anonymous": false,
      "inputs": [
        {
          "indexed": true,
          "internalType": "uint256",
          "name": "bountyId",
          "type": "uint256"
        },
        {
          "indexed": true,
          "internalType": "address",
          "name": "submitter",
          "type": "address"
        },
        {
          "indexed": true,
          "internalType": "uint256",
          "name": "submissionIndex",
          "type": "uint256"
        }
      ],
      "name": "AnswerRevealed",
      "type": "event"
    },
    {
      "anonymous": false,
      "inputs": [
        {
          "indexed": true,
          "internalType": "uint256",
          "name": "bountyId",
          "type": "uint256"
        },
        {
          "indexed": false,
          "internalType": "uint256",
          "name": "refund",
          "type": "uint256"
        }
      ],
      "name": "BountyCancelled",
      "type": "event"
    },
    {
      "anonymous": false,
      "inputs": [
        {
          "indexed": true,
          "internalType": "uint256",
          "name": "bountyId",
          "type": "uint256"
        },
        {
          "indexed": true,
          "internalType": "address",
          "name": "owner",
          "type": "address"
        },
        {
          "indexed": false,
          "internalType": "string",
          "name": "title",
          "type": "string"
        },
        {
          "indexed": false,
          "internalType": "uint256",
          "name": "reward",
          "type": "uint256"
        },
        {
          "indexed": false,
          "internalType": "uint256",
          "name": "submissionDeadline",
          "type": "uint256"
        },
        {
          "indexed": false,
          "internalType": "uint256",
          "name": "revealDeadline",
          "type": "uint256"
        }
      ],
      "name": "BountyCreated",
      "type": "event"
    },
    {
      "anonymous": false,
      "inputs": [
        {
          "indexed": true,
          "internalType": "uint256",
          "name": "bountyId",
          "type": "uint256"
        },
        {
          "indexed": true,
          "internalType": "address",
          "name": "submitter",
          "type": "address"
        },
        {
          "indexed": true,
          "internalType": "uint256",
          "name": "submissionIndex",
          "type": "uint256"
        },
        {
          "indexed": false,
          "internalType": "bytes32",
          "name": "commitment",
          "type": "bytes32"
        }
      ],
      "name": "CommitmentSubmitted",
      "type": "event"
    },
    {
      "anonymous": false,
      "inputs": [
        {
          "indexed": true,
          "internalType": "uint256",
          "name": "bountyId",
          "type": "uint256"
        },
        {
          "indexed": true,
          "internalType": "uint256",
          "name": "winnerIndex",
          "type": "uint256"
        },
        {
          "indexed": true,
          "internalType": "address",
          "name": "winner",
          "type": "address"
        },
        {
          "indexed": false,
          "internalType": "uint256",
          "name": "reward",
          "type": "uint256"
        }
      ],
      "name": "WinnerFinalized",
      "type": "event"
    },
    {
      "inputs": [],
      "name": "MAX_ANSWER_LENGTH",
      "outputs": [
        {
          "internalType": "uint256",
          "name": "",
          "type": "uint256"
        }
      ],
      "stateMutability": "view",
      "type": "function"
    },
    {
      "inputs": [],
      "name": "MAX_SUBMISSIONS",
      "outputs": [
        {
          "internalType": "uint256",
          "name": "",
          "type": "uint256"
        }
      ],
      "stateMutability": "view",
      "type": "function"
    },
    {
      "inputs": [
        {
          "internalType": "uint256",
          "name": "bountyId",
          "type": "uint256"
        }
      ],
      "name": "cancelBounty",
      "outputs": [],
      "stateMutability": "nonpayable",
      "type": "function"
    },
    {
      "inputs": [
        {
          "internalType": "string",
          "name": "answer",
          "type": "string"
        },
        {
          "internalType": "bytes32",
          "name": "salt",
          "type": "bytes32"
        },
        {
          "internalType": "address",
          "name": "submitter",
          "type": "address"
        },
        {
          "internalType": "uint256",
          "name": "bountyId",
          "type": "uint256"
        }
      ],
      "name": "computeCommitment",
      "outputs": [
        {
          "internalType": "bytes32",
          "name": "",
          "type": "bytes32"
        }
      ],
      "stateMutability": "pure",
      "type": "function"
    },
    {
      "inputs": [
        {
          "internalType": "string",
          "name": "title",
          "type": "string"
        },
        {
          "internalType": "string",
          "name": "rubric",
          "type": "string"
        },
        {
          "internalType": "uint256",
          "name": "submissionDeadline",
          "type": "uint256"
        },
        {
          "internalType": "uint256",
          "name": "revealDeadline",
          "type": "uint256"
        }
      ],
      "name": "createBounty",
      "outputs": [
        {
          "internalType": "uint256",
          "name": "bountyId",
          "type": "uint256"
        }
      ],
      "stateMutability": "payable",
      "type": "function"
    },
    {
      "inputs": [
        {
          "internalType": "uint256",
          "name": "bountyId",
          "type": "uint256"
        },
        {
          "internalType": "uint256",
          "name": "winnerIndex",
          "type": "uint256"
        }
      ],
      "name": "finalizeWinner",
      "outputs": [],
      "stateMutability": "nonpayable",
      "type": "function"
    },
    {
      "inputs": [
        {
          "internalType": "uint256",
          "name": "bountyId",
          "type": "uint256"
        }
      ],
      "name": "getBounty",
      "outputs": [
        {
          "internalType": "address",
          "name": "owner",
          "type": "address"
        },
        {
          "internalType": "string",
          "name": "title",
          "type": "string"
        },
        {
          "internalType": "string",
          "name": "rubric",
          "type": "string"
        },
        {
          "internalType": "uint256",
          "name": "reward",
          "type": "uint256"
        },
        {
          "internalType": "uint256",
          "name": "submissionDeadline",
          "type": "uint256"
        },
        {
          "internalType": "uint256",
          "name": "revealDeadline",
          "type": "uint256"
        },
        {
          "internalType": "bool",
          "name": "judged",
          "type": "bool"
        },
        {
          "internalType": "bool",
          "name": "finalized",
          "type": "bool"
        },
        {
          "internalType": "bool",
          "name": "cancelled",
          "type": "bool"
        },
        {
          "internalType": "uint256",
          "name": "totalSubmissions",
          "type": "uint256"
        },
        {
          "internalType": "uint256",
          "name": "revealedCount",
          "type": "uint256"
        },
        {
          "internalType": "uint256",
          "name": "winnerIndex",
          "type": "uint256"
        },
        {
          "internalType": "bytes",
          "name": "aiReview",
          "type": "bytes"
        }
      ],
      "stateMutability": "view",
      "type": "function"
    },
    {
      "inputs": [
        {
          "internalType": "uint256",
          "name": "bountyId",
          "type": "uint256"
        },
        {
          "internalType": "uint256",
          "name": "index",
          "type": "uint256"
        }
      ],
      "name": "getSubmission",
      "outputs": [
        {
          "internalType": "address",
          "name": "submitter",
          "type": "address"
        },
        {
          "internalType": "bytes32",
          "name": "commitment",
          "type": "bytes32"
        },
        {
          "internalType": "bool",
          "name": "revealed",
          "type": "bool"
        },
        {
          "internalType": "string",
          "name": "answer",
          "type": "string"
        }
      ],
      "stateMutability": "view",
      "type": "function"
    },
    {
      "inputs": [
        {
          "internalType": "uint256",
          "name": "bountyId",
          "type": "uint256"
        },
        {
          "internalType": "bytes",
          "name": "llmInput",
          "type": "bytes"
        }
      ],
      "name": "judgeAll",
      "outputs": [],
      "stateMutability": "nonpayable",
      "type": "function"
    },
    {
      "inputs": [],
      "name": "nextBountyId",
      "outputs": [
        {
          "internalType": "uint256",
          "name": "",
          "type": "uint256"
        }
      ],
      "stateMutability": "view",
      "type": "function"
    },
    {
      "inputs": [
        {
          "internalType": "uint256",
          "name": "bountyId",
          "type": "uint256"
        },
        {
          "internalType": "string",
          "name": "answer",
          "type": "string"
        },
        {
          "internalType": "bytes32",
          "name": "salt",
          "type": "bytes32"
        }
      ],
      "name": "revealAnswer",
      "outputs": [],
      "stateMutability": "nonpayable",
      "type": "function"
    },
    {
      "inputs": [
        {
          "internalType": "uint256",
          "name": "bountyId",
          "type": "uint256"
        }
      ],
      "name": "submissionCount",
      "outputs": [
        {
          "internalType": "uint256",
          "name": "",
          "type": "uint256"
        }
      ],
      "stateMutability": "view",
      "type": "function"
    },
    {
      "inputs": [
        {
          "internalType": "uint256",
          "name": "bountyId",
          "type": "uint256"
        },
        {
          "internalType": "bytes32",
          "name": "commitment",
          "type": "bytes32"
        }
      ],
      "name": "submitCommitment",
      "outputs": [],
      "stateMutability": "nonpayable",
      "type": "function"
    }
  ],
  "bytecode": "0x6080806040523461001f5760015f556001600455611bad90816100248239f35b5f80fdfe60806040526004361015610011575f80fd5b5f3560e01c80632312cbf6146100e45780635a7722f1146100df5780638e789683146100da578063b7ed7071146100d5578063cb655fb6146100d0578063d5198a71146100cb578063d8964ee9146100c6578063e31202c0146100c1578063e5e5dff1146100bc578063e6a3d9dc146100b7578063ee8c4bbf146100b2578063fd14fad4146100ad5763fd3a8329146100a8575f80fd5b610cf6565b610cda565b610c11565b610a15565b6108d5565b61077b565b61064b565b6104c7565b61043e565b610370565b6102df565b610134565b34610130576020366003190112610130576004355f8181526001602052604090205461011a906001600160a01b03161515610d12565b5f526002602052602060405f2054604051908152f35b5f80fd5b34610130576040366003190112610130576004355f818152600160205260409020546001600160a01b0391602435916101709084161515610d12565b805f5260016020526101898360405f2054163314610d51565b610197600160045414610d90565b60026004557f2eb0120759ae6dd1505f3f092609ec7e75433fb2401ad648ebeb5bd4bd55e5b66102d06101d2835f52600160205260405f2090565b946102be6003600688019761020860ff8a546101ef828216610dc9565b6101fe828260081c1615610e02565b60101c1615610e42565b61022561021d885f52600260205260405f2090565b548910610e7a565b61026a6102438961023e8a5f52600260205260405f2090565b610eb2565b509961025b61025660028d015460ff1690565b610edf565b805461ff001916610100179055565b87600782015501965f885498556102b15f8080808c6102a1610295610295895460018060a01b031690565b6001600160a01b031690565b5af16102ab610fb7565b50610fe6565b546001600160a01b031690565b60405196875216949081906020820190565b0390a46102dd6001600455565b005b34610130575f36600319011261013057602060405160328152f35b5f5b83811061030b5750505f910152565b81810151838201526020016102fc565b90602091610334815180928185528580860191016102fa565b601f01601f1916010190565b909260809261036d959460018060a01b03168352602083015215156040820152816060820152019061031b565b90565b34610130576040806003193601126101305760043561040d60036103d5602435845f52600160205260018060a01b03946103b086885f2054161515610d12565b805f5260026020526103c6875f20548310610e7a565b5f526002602052855f20610eb2565b50928354169260018101549461040360ff600284015416926103fc83518096819301611063565b0384610f35565b5194859485610340565b0390f35b9181601f84011215610130578235916001600160401b038311610130576020838186019501011161013057565b34610130576080366003190112610130576004356001600160401b0381116101305761046e903690600401610411565b60443591906001600160a01b0383168303610130576104b461040d936104a66040519384926020840196606435926024359189611111565b03601f198101835282610f35565b5190206040519081529081906020820190565b34610130576060366003190112610130576024356004356001600160401b038211610130576104fc6008923690600401610411565b5f83815260016020526040902054919391610521906001600160a01b03161515610d12565b61061b610536845f52600160205260405f2090565b91610547600484015442101561113f565b61055660058401544210611180565b610564610fa08211156111bc565b61059f61058e61057c875f52600360205260405f2090565b335f9081526020919091526040902090565b5461059a8115156111fa565b61124a565b9560036105b88861023e895f52600260205260405f2090565b50610615600282016105da6105d56105d1835460ff1690565b1590565b61125d565b6040516106089060208101906105fa816104a68f336044358e8e89611111565b51902060018501541461129c565b805460ff19166001179055565b0161132d565b018054600101905533907f6c90b501c3ab8391de89e2d4c93b2db6a5ee7e841bc9d4726a66323a4367291c5f80a4005b34610130576040366003190112610130576004356024356001600160401b03811161013057610776600961076a6106086106aa7fb51288ae628dca25614026175dc22a78631acc1a31f034c68c3fa241ca0fd05c953690600401610411565b9390875f5260016020526106e460018060a01b036106cf8160405f2054161515610d12565b895f52600160205260405f2054163314610d51565b6107646107556107466107416107028c5f52600160205260405f2090565b9461071360058701544210156113f5565b600686019961072b60ff8c546101ef82821615611433565b61073a60088801541515611470565b36916114b2565b611b06565b602080825183010191016115aa565b5090508198929691961561162c565b0161165c565b6040519182918261171f565b0390a2005b6080366003190112610130576001600160401b03600435818111610130576107a7903690600401610411565b9091602435908111610130576107c1903690600401610411565b909190606435604435341561089e5761040d9561088b7f736ab752f6714f3191bc874ebe0b24d2daa1e5a5281882b7c59d90d19c45fda49361087b60076108629961080d428811611730565b61081887851161177c565b5f549a8b996108268b6117c8565b5f5561083a8b5f52600160205260405f2090565b80546001600160a01b03191633178155926108598d8a6001870161132d565b6002840161132d565b346003820155866004820155836005820155015f199055565b60405193849333983491866117d6565b0390a36040519081529081906020820190565b60405162461bcd60e51b815260206004820152600f60248201526e1c995dd85c99081c995c5d5a5c9959608a1b6044820152606490fd5b3461013057602036600319011261013057600435805f52600160205261092160018060a01b0361090c8160405f2054161515610d12565b825f52600160205260405f2054163314610d51565b61092f600160045414610d90565b60026004557f4fe522caf12f0adba1b0532093b34bea60fc859fb838ae075b44bcd15fcde9ff610a085f6109f881808080610972895f52600160205260405f2090565b61098260058201544210156113f5565b610990600882015415611810565b6109c8600682016109b760ff82546109ad828260081c1615610e02565b60101c161561184a565b805462ff0000191662010000179055565b6003810180549790555486906109e890610295906001600160a01b031681565b5af16109f2610fb7565b5061188a565b6040519081529081906020820190565b0390a26102dd6001600455565b34610130576040366003190112610130576004355f8181526001602052604090205460243590610a4f906001600160a01b03161515610d12565b610a6f6004610a66845f52600160205260405f2090565b015442106118c6565b610a7a811515611907565b610a99610a9261057c845f52600360205260405f2090565b5415611946565b610ab76032610ab0845f52600260205260405f2090565b5410611986565b610af6610acc835f52600260205260405f2090565b610ad4610f5b565b338152908360208301525f6040830152610aec610f95565b60608301526119c0565b610b11610b0b835f52600260205260405f2090565b5461124a565b91610b1b83611af8565b610b4633610b31845f52600360205260405f2090565b9060018060a01b03165f5260205260405f2090565b5560405191825233917fc8f8be6fa09764c9278ca771f2760720757f2aa6a6b9be99c18af58491f69bfc90602090a4005b99969095610be7949c9995610bc361036d9f9d9a958d90610bb5610bde97610bf19c6101a09060018060a01b0316855280602086015284019061031b565b91604081840391015261031b565b9d60608d015260808c015260a08b015260c08a019015159052565b151560e0880152565b1515610100860152565b61012084015261014083015261016082015261018081840391015261031b565b34610130576020366003190112610130576004355f818152600160205260409020546001600160a01b0390610c499082161515610d12565b815f52600160205261040d60405f209182541692600383015493600484015491600585015491610c866006870154925f52600260205260405f2090565b5490600887015492600788015494610ca060018a016110f4565b90610cb96009610cb260028d016110f4565b9b016110f4565b976040519b8c9b8c9460ff8760101c169760ff808960081c16981696610b77565b34610130575f3660031901126101305760205f54604051908152f35b34610130575f366003190112610130576020604051610fa08152f35b15610d1957565b60405162461bcd60e51b815260206004820152601060248201526f189bdd5b9d1e481b9bdd08199bdd5b9960821b6044820152606490fd5b15610d5857565b60405162461bcd60e51b815260206004820152601060248201526f3737ba103137bab73a3c9037bbb732b960811b6044820152606490fd5b15610d9757565b60405162461bcd60e51b815260206004820152600a6024820152697265656e7472616e637960b01b6044820152606490fd5b15610dd057565b60405162461bcd60e51b815260206004820152600a6024820152691b9bdd081a9d5919d95960b21b6044820152606490fd5b15610e0957565b60405162461bcd60e51b8152602060048201526011602482015270185b1c9958591e48199a5b985b1a5e9959607a1b6044820152606490fd5b15610e4957565b60405162461bcd60e51b815260206004820152600960248201526818d85b98d95b1b195960ba1b6044820152606490fd5b15610e8157565b60405162461bcd60e51b81526020600482015260096024820152680c4c2c840d2dcc8caf60bb1b6044820152606490fd5b8054821015610ecb575f5260205f209060021b01905f90565b634e487b7160e01b5f52603260045260245ffd5b15610ee657565b60405162461bcd60e51b81526020600482015260136024820152721dda5b9b995c881b9bdd081c995d99585b1959606a1b6044820152606490fd5b634e487b7160e01b5f52604160045260245ffd5b90601f801991011681019081106001600160401b03821117610f5657604052565b610f21565b60405190608082018281106001600160401b03821117610f5657604052565b6001600160401b038111610f5657601f01601f191660200190565b60405190602082018281106001600160401b03821117610f56576040525f8252565b3d15610fe1573d90610fc882610f7a565b91610fd66040519384610f35565b82523d5f602084013e565b606090565b15610fed57565b60405162461bcd60e51b81526020600482015260166024820152751c995dd85c99081d1c985b9cd9995c8819985a5b195960521b6044820152606490fd5b90600182811c92168015611059575b602083101461104557565b634e487b7160e01b5f52602260045260245ffd5b91607f169161103a565b80545f93926110718261102b565b918282526020936001916001811690815f146110d55750600114611097575b5050505050565b90939495505f92919252835f2092845f945b8386106110c157505050500101905f80808080611090565b8054858701830152940193859082016110a9565b60ff19168685015250505090151560051b010191505f80808080611090565b9061110f6111089260405193848092611063565b0383610f35565b565b826054969495939282370192835260601b6bffffffffffffffffffffffff1916602083015260348201520190565b1561114657565b60405162461bcd60e51b81526020600482015260126024820152711c995d99585b081b9bdd081cdd185c9d195960721b6044820152606490fd5b1561118757565b60405162461bcd60e51b815260206004820152600d60248201526c1c995d99585b0818db1bdcd959609a1b6044820152606490fd5b156111c357565b60405162461bcd60e51b815260206004820152600f60248201526e616e7377657220746f6f206c6f6e6760881b6044820152606490fd5b1561120157565b60405162461bcd60e51b815260206004820152600d60248201526c1b9bc818dbdb5b5a5d1b595b9d609a1b6044820152606490fd5b634e487b7160e01b5f52601160045260245ffd5b5f1981019190821161125857565b611236565b1561126457565b60405162461bcd60e51b815260206004820152601060248201526f185b1c9958591e481c995d99585b195960821b6044820152606490fd5b156112a357565b60405162461bcd60e51b81526020600482015260136024820152720c6dedadad2e8dacadce840dad2e6dac2e8c6d606b1b6044820152606490fd5b601f82116112eb57505050565b5f5260205f20906020601f840160051c83019310611323575b601f0160051c01905b818110611318575050565b5f815560010161130d565b9091508190611304565b9092916001600160401b038111610f56576113528161134c845461102b565b846112de565b5f601f82116001146113905781906113819394955f92611385575b50508160011b915f199060031b1c19161790565b9055565b013590505f8061136d565b601f198216946113a3845f5260205f2090565b915f5b8781106113dd5750836001959697106113c4575b505050811b019055565b01355f19600384901b60f8161c191690555f80806113ba565b909260206001819286860135815501940191016113a6565b156113fc57565b60405162461bcd60e51b815260206004820152600f60248201526e3932bb32b0b6103737ba1037bb32b960891b6044820152606490fd5b1561143a57565b60405162461bcd60e51b815260206004820152600e60248201526d185b1c9958591e481a9d5919d95960921b6044820152606490fd5b1561147757565b60405162461bcd60e51b81526020600482015260136024820152726e6f2072657665616c656420616e737765727360681b6044820152606490fd5b9291926114be82610f7a565b916114cc6040519384610f35565b829481845281830111610130578281602093845f960137010152565b81601f820112156101305780516114fe81610f7a565b9261150c6040519485610f35565b818452602082840101116101305761036d91602080850191016102fa565b91909160608184031261013057604051906001600160401b03906060830182811184821017610f565760405282948151838111610130578161156d9184016114e8565b8452602082015183811161013057816115879184016114e8565b60208501526040820151928311610130576040926115a592016114e8565b910152565b9060a082820312610130578151801515810361013057926020830151906001600160401b039182811161013057836115e39186016114e8565b93604081015183811161013057846115fc9183016114e8565b93606082015184811161013057816116159184016114e8565b9360808301519081116101305761036d920161152a565b156116345750565b60405162461bcd60e51b81526020600482015290819061165890602483019061031b565b0390fd5b91909182516001600160401b038111610f565761167d8161134c845461102b565b602080601f83116001146116b9575081906113819394955f926116ae5750508160011b915f199060031b1c19161790565b015190505f8061136d565b90601f198316956116cd855f5260205f2090565b925f905b888210611707575050836001959697106116ef57505050811b019055565b01515f1960f88460031b161c191690555f80806113ba565b806001859682949686015181550195019301906116d1565b90602061036d92818152019061031b565b1561173757565b60405162461bcd60e51b815260206004820152601b60248201527f7375626d697373696f6e20646561646c696e6520696e207061737400000000006044820152606490fd5b1561178357565b60405162461bcd60e51b815260206004820152601d60248201527f72657665616c206d75737420666f6c6c6f77207375626d697373696f6e0000006044820152606490fd5b5f1981146112585760010190565b918060a0916060959897969360808652816080870152838601375f828286010152601f801991011683010195602083015260408201520152565b1561181757565b60405162461bcd60e51b815260206004820152600b60248201526a6861732072657665616c7360a81b6044820152606490fd5b1561185157565b60405162461bcd60e51b8152602060048201526011602482015270185b1c9958591e4818d85b98d95b1b1959607a1b6044820152606490fd5b1561189157565b60405162461bcd60e51b815260206004820152600d60248201526c1c99599d5b990819985a5b1959609a1b6044820152606490fd5b156118cd57565b60405162461bcd60e51b81526020600482015260126024820152711cdd589b5a5cdcda5bdb9cc818db1bdcd95960721b6044820152606490fd5b1561190e57565b60405162461bcd60e51b815260206004820152601060248201526f195b5c1d1e4818dbdb5b5a5d1b595b9d60821b6044820152606490fd5b1561194d57565b60405162461bcd60e51b8152602060048201526011602482015270185b1c9958591e4818dbdb5b5a5d1d1959607a1b6044820152606490fd5b1561198d57565b60405162461bcd60e51b815260206004820152600b60248201526a189bdd5b9d1e48199d5b1b60aa1b6044820152606490fd5b9190825468010000000000000000811015610f56576119e790600194600182018155610eb2565b611ae557815181546001600160a01b0319166001600160a01b03919091161781556060600360209260208501516001820155611a3860408601511515600283019060ff801983541691151516179055565b01920151938451916001600160401b038311610f5657611a6283611a5c865461102b565b866112de565b602091601f8411600114611a9457505081906113819394955f926116ae5750508160011b915f199060031b1c19161790565b95601f92919219841696611aab865f5260205f2090565b935f915b898310611ace57505050836001959697106116ef57505050811b019055565b838501518655948501949381019391810191611aaf565b634e487b7160e01b5f525f60045260245ffd5b906001820180921161125857565b5f806020928381519101826108025af190611b1f610fb7565b9115611b7157815182019060408382840193031261013057808301516001600160401b0390818111610130578383611b59928701016114e8565b5060408401519081116101305761036d9301016114e8565b81519101fdfea26469706673582212201696ceba972e9edf849dc8715d3c966aa5a32c0a4e6f146885c17ef133ab3ad964736f6c63430008180033",
  "linkReferences": {},
  "deployedLinkReferences": {},
  "immutableReferences": {},
  "inputSourceName": "project/contracts/CommitRevealBounty.sol",
  "buildInfoId": "solc-0_8_24-26266818cd12cbe516f9bf2f2d1ee85ebe77b67a"
}