{
  "_format": "hh3-artifact-1",
  "contractName": "SealedBountyJudge",
  "sourceName": "contracts/SealedBountyJudge.sol",
  "abi": [
    {
      "anonymous": false,
      "inputs": [
        {
          "indexed": true,
          "internalType": "uint256",
          "name": "bountyId",
          "type": "uint256"
        },
        {
          "indexed": false,
          "internalType": "bytes",
          "name": "aiReview",
          "type": "bytes"
        }
      ],
      "name": "AllAnswersJudged",
      "type": "event"
    },
    {
      "anonymous": false,
      "inputs": [
        {
          "indexed": true,
          "internalType": "uint256",
          "name": "bountyId",
          "type": "uint256"
        },
        {
          "indexed": false,
          "internalType": "string",
          "name": "revealedAnswersRef",
          "type": "string"
        },
        {
          "indexed": false,
          "internalType": "bytes32",
          "name": "revealedAnswersHash",
          "type": "bytes32"
        }
      ],
      "name": "AnswersRevealed",
      "type": "event"
    },
    {
      "anonymous": false,
      "inputs": [
        {
          "indexed": true,
          "internalType": "uint256",
          "name": "bountyId",
          "type": "uint256"
        },
        {
          "indexed": false,
          "internalType": "uint256",
          "name": "refund",
          "type": "uint256"
        }
      ],
      "name": "BountyCancelled",
      "type": "event"
    },
    {
      "anonymous": false,
      "inputs": [
        {
          "indexed": true,
          "internalType": "uint256",
          "name": "bountyId",
          "type": "uint256"
        },
        {
          "indexed": true,
          "internalType": "address",
          "name": "owner",
          "type": "address"
        },
        {
          "indexed": true,
          "internalType": "address",
          "name": "executor",
          "type": "address"
        },
        {
          "indexed": false,
          "internalType": "string",
          "name": "title",
          "type": "string"
        },
        {
          "indexed": false,
          "internalType": "uint256",
          "name": "reward",
          "type": "uint256"
        },
        {
          "indexed": false,
          "internalType": "uint256",
          "name": "submissionDeadline",
          "type": "uint256"
        }
      ],
      "name": "BountyCreated",
      "type": "event"
    },
    {
      "anonymous": false,
      "inputs": [
        {
          "indexed": true,
          "internalType": "uint256",
          "name": "bountyId",
          "type": "uint256"
        },
        {
          "indexed": true,
          "internalType": "address",
          "name": "submitter",
          "type": "address"
        },
        {
          "indexed": true,
          "internalType": "uint256",
          "name": "submissionIndex",
          "type": "uint256"
        },
        {
          "indexed": false,
          "internalType": "bytes32",
          "name": "digest",
          "type": "bytes32"
        },
        {
          "indexed": false,
          "internalType": "bytes",
          "name": "ciphertext",
          "type": "bytes"
        }
      ],
      "name": "SealedSubmitted",
      "type": "event"
    },
    {
      "anonymous": false,
      "inputs": [
        {
          "indexed": true,
          "internalType": "uint256",
          "name": "bountyId",
          "type": "uint256"
        },
        {
          "indexed": true,
          "internalType": "uint256",
          "name": "winnerIndex",
          "type": "uint256"
        },
        {
          "indexed": true,
          "internalType": "address",
          "name": "winner",
          "type": "address"
        },
        {
          "indexed": false,
          "internalType": "uint256",
          "name": "reward",
          "type": "uint256"
        }
      ],
      "name": "WinnerFinalized",
      "type": "event"
    },
    {
      "inputs": [],
      "name": "MAX_CIPHERTEXT_LENGTH",
      "outputs": [
        {
          "internalType": "uint256",
          "name": "",
          "type": "uint256"
        }
      ],
      "stateMutability": "view",
      "type": "function"
    },
    {
      "inputs": [],
      "name": "MAX_SUBMISSIONS",
      "outputs": [
        {
          "internalType": "uint256",
          "name": "",
          "type": "uint256"
        }
      ],
      "stateMutability": "view",
      "type": "function"
    },
    {
      "inputs": [
        {
          "internalType": "uint256",
          "name": "bountyId",
          "type": "uint256"
        }
      ],
      "name": "cancelBounty",
      "outputs": [],
      "stateMutability": "nonpayable",
      "type": "function"
    },
    {
      "inputs": [
        {
          "internalType": "address",
          "name": "executor",
          "type": "address"
        },
        {
          "internalType": "string",
          "name": "title",
          "type": "string"
        },
        {
          "internalType": "string",
          "name": "rubric",
          "type": "string"
        },
        {
          "internalType": "uint256",
          "name": "submissionDeadline",
          "type": "uint256"
        }
      ],
      "name": "createBounty",
      "outputs": [
        {
          "internalType": "uint256",
          "name": "bountyId",
          "type": "uint256"
        }
      ],
      "stateMutability": "payable",
      "type": "function"
    },
    {
      "inputs": [
        {
          "internalType": "uint256",
          "name": "bountyId",
          "type": "uint256"
        },
        {
          "internalType": "uint256",
          "name": "winnerIndex",
          "type": "uint256"
        }
      ],
      "name": "finalizeWinner",
      "outputs": [],
      "stateMutability": "nonpayable",
      "type": "function"
    },
    {
      "inputs": [
        {
          "internalType": "uint256",
          "name": "bountyId",
          "type": "uint256"
        }
      ],
      "name": "getBounty",
      "outputs": [
        {
          "internalType": "address",
          "name": "owner",
          "type": "address"
        },
        {
          "internalType": "address",
          "name": "executor",
          "type": "address"
        },
        {
          "internalType": "string",
          "name": "title",
          "type": "string"
        },
        {
          "internalType": "string",
          "name": "rubric",
          "type": "string"
        },
        {
          "internalType": "uint256",
          "name": "reward",
          "type": "uint256"
        },
        {
          "internalType": "uint256",
          "name": "submissionDeadline",
          "type": "uint256"
        },
        {
          "internalType": "bool",
          "name": "judged",
          "type": "bool"
        },
        {
          "internalType": "bool",
          "name": "finalized",
          "type": "bool"
        },
        {
          "internalType": "bool",
          "name": "cancelled",
          "type": "bool"
        },
        {
          "internalType": "uint256",
          "name": "totalSubmissions",
          "type": "uint256"
        },
        {
          "internalType": "uint256",
          "name": "winnerIndex",
          "type": "uint256"
        },
        {
          "internalType": "string",
          "name": "revealedAnswersRef",
          "type": "string"
        },
        {
          "internalType": "bytes32",
          "name": "revealedAnswersHash",
          "type": "bytes32"
        },
        {
          "internalType": "bytes",
          "name": "aiReview",
          "type": "bytes"
        }
      ],
      "stateMutability": "view",
      "type": "function"
    },
    {
      "inputs": [
        {
          "internalType": "uint256",
          "name": "bountyId",
          "type": "uint256"
        },
        {
          "internalType": "uint256",
          "name": "index",
          "type": "uint256"
        }
      ],
      "name": "getSealedSubmission",
      "outputs": [
        {
          "internalType": "address",
          "name": "submitter",
          "type": "address"
        },
        {
          "internalType": "bytes32",
          "name": "digest",
          "type": "bytes32"
        },
        {
          "internalType": "bytes",
          "name": "ciphertext",
          "type": "bytes"
        }
      ],
      "stateMutability": "view",
      "type": "function"
    },
    {
      "inputs": [
        {
          "internalType": "uint256",
          "name": "bountyId",
          "type": "uint256"
        },
        {
          "internalType": "bytes",
          "name": "llmInput",
          "type": "bytes"
        }
      ],
      "name": "judgeAll",
      "outputs": [],
      "stateMutability": "nonpayable",
      "type": "function"
    },
    {
      "inputs": [],
      "name": "nextBountyId",
      "outputs": [
        {
          "internalType": "uint256",
          "name": "",
          "type": "uint256"
        }
      ],
      "stateMutability": "view",
      "type": "function"
    },
    {
      "inputs": [
        {
          "internalType": "uint256",
          "name": "bountyId",
          "type": "uint256"
        },
        {
          "internalType": "string",
          "name": "revealedAnswersRef",
          "type": "string"
        },
        {
          "internalType": "bytes32",
          "name": "revealedAnswersHash",
          "type": "bytes32"
        }
      ],
      "name": "publishRevealedAnswers",
      "outputs": [],
      "stateMutability": "nonpayable",
      "type": "function"
    },
    {
      "inputs": [
        {
          "internalType": "uint256",
          "name": "bountyId",
          "type": "uint256"
        }
      ],
      "name": "submissionCount",
      "outputs": [
        {
          "internalType": "uint256",
          "name": "",
          "type": "uint256"
        }
      ],
      "stateMutability": "view",
      "type": "function"
    },
    {
      "inputs": [
        {
          "internalType": "uint256",
          "name": "bountyId",
          "type": "uint256"
        },
        {
          "internalType": "bytes",
          "name": "ciphertext",
          "type": "bytes"
        }
      ],
      "name": "submitSealed",
      "outputs": [],
      "stateMutability": "nonpayable",
      "type": "function"
    }
  ],
  "bytecode": "0x6080806040523461001f5760015f55600160045561199990816100248239f35b5f80fdfe60806040526004361015610011575f80fd5b5f3560e01c806313c220ca146100d45780632312cbf6146100cf5780635a7722f1146100ca5780637bbde413146100c55780638dbc6b6f146100c05780638e789683146100bb5780638fa1c3b3146100b6578063d8964ee9146100b1578063e5e5dff1146100ac578063ee8c4bbf146100a7578063fc6cf878146100a25763fd14fad41461009d575f80fd5b610c4e565b610bbb565b610ab3565b61085a565b610728565b6105cc565b6105b1565b610595565b610488565b610317565b6102cb565b61013d565b9181601f84011215610106578235916001600160401b038311610106576020838186019501011161010657565b5f80fd5b9060406003198301126101065760043591602435906001600160401b03821161010657610139916004016100d9565b9091565b346101065761014b3661010a565b9091805f52600160205261016c60018060a01b0360405f2054161515610c6a565b61018c6005610183835f52600160205260405f2090565b01544210610ca9565b610197821515610cea565b6101a5611f40831115610d29565b6101d66101cf6101bd835f52600360205260405f2090565b335f9081526020919091526040902090565b5415610d6b565b6101f460326101ed835f52600260205260405f2090565b5410610dab565b7ff615054d3b95e3a236aeaa5ba688119fdf7fd9d57c4fb63c17c2ea9a08b832c1610220368486610e59565b602081519101209261026461023d845f52600260205260405f2090565b610245610e1f565b3381529061025436858a610e59565b6020830152866040830152611012565b61027f610279845f52600260205260405f2090565b54611168565b946102898661117b565b6102b43361029f875f52600360205260405f2090565b9060018060a01b03165f5260205260405f2090565b556102c66040519283923397846111a9565b0390a4005b34610106576020366003190112610106576004355f81815260016020526040902054610301906001600160a01b03161515610c6a565b5f526002602052602060405f2054604051908152f35b34610106576040366003190112610106576004355f818152600160205260409020546001600160a01b0391602435916103539084161515610c6a565b805f52600160205261036c8360405f20541633146111c0565b61037a6001600454146111ff565b60026004557f2eb0120759ae6dd1505f3f092609ec7e75433fb2401ad648ebeb5bd4bd55e5b661047960046103b7845f52600160205260405f2090565b610415600682016103e960ff82546103d0828216611238565b6103df828260081c1615611271565b60101c16156112b1565b6104066103fe885f52600260205260405f2090565b5489106112e9565b805461ff001916610100179055565b85600782015501945f8654965561044e6104408661043b875f52600260205260405f2090565b610e8f565b50546001600160a01b031690565b16946104695f808080858b5af1610463611321565b50611350565b6040519081529081906020820190565b0390a46104866001600455565b005b34610106576060366003190112610106576004356024356001600160401b038111610106576104bb9036906004016100d9565b60443591835f5260016020526104f760018060a01b036104e28160405f2054161515610c6a565b855f52600160205260405f20541633146111c0565b835f52600160205260405f2061051360ff600683015416611238565b831561056357837f38ebcab9231e0a084e2b3ad21a0adece09402ad32eda844f054849a75d8fdd1b94600a836105508787600961055e9801611395565b015560405193849384611451565b0390a2005b60405162461bcd60e51b815260206004820152600a6024820152690cadae0e8f240d0c2e6d60b31b6044820152606490fd5b34610106575f366003190112610106576020604051611f408152f35b34610106575f36600319011261010657602060405160328152f35b6080366003190112610106576004356001600160a01b03811690818103610106576001600160401b03916024358381116101065761060e9036906004016100d9565b90604435948511610106577f17c764006589bffffc90cb13315f1b01c08ef03c62d38e2ca9a724983a30777061064b6107249636906004016100d9565b9590926106fe60076064359361066234151561146e565b61066d8915156114ac565b6106784286116114ec565b6106eb5f549a8b986106898a61152b565b5f556106d46106a08b5f52600160205260405f2090565b80546001600160a01b03191633178155946001860180546001600160a01b0319166001600160a01b03909216919091179055565b6106e28b8860028701611395565b60038401611395565b346004820155846005820155015f199055565b6107116040519283923397349185611539565b0390a46040519081529081906020820190565b0390f35b346101065761081d7fb51288ae628dca25614026175dc22a78631acc1a31f034c68c3fa241ca0fd05c61055e60ff61084e61083b600861081861084861082c6107703661010a565b90829c929591865f5260016020526107ae60018060a01b036107998160405f2054161515610c6a565b885f52600160205260405f20541633146111c0565b6108116108096107c6895f52600160205260405f2090565b986107d760058b015442101561155d565b6107fb60068b019e8f546107ed8282161561159c565b6103df818f1c831615611271565b5f52600260205260405f2090565b5415156115d9565b3691610e59565b6118f2565b602080825183010191016116d8565b5090508198929691961561175a565b805460ff19166001179055565b01610f43565b6040519182918261178a565b3461010657602036600319011261010657600435805f5260016020526108a660018060a01b036108918160405f2054161515610c6a565b825f52600160205260405f20541633146111c0565b6108b46001600454146111ff565b60026004557f4fe522caf12f0adba1b0532093b34bea60fc859fb838ae075b44bcd15fcde9ff6109915f610469818080806108f7895f52600160205260405f2090565b610907600582015442101561155d565b61092361091c8b5f52600260205260405f2090565b541561179b565b61095560068201610944815460ff8160081c1615908161099e575b506117d9565b805462ff0000191662010000179055565b60048101805497905554869061098190610975906001600160a01b031681565b6001600160a01b031690565b5af161098b611321565b5061180f565b0390a26104866001600455565b60ff915060101c16155f61093e565b5f5b8381106109be5750505f910152565b81810151838201526020016109af565b906020916109e7815180928185528580860191016109ad565b601f01601f1916010190565b9a96610a9b9a96610ab09f9d9993966080610a5d8f809e99610a4f610a779a610a6e99610a41610a819f610a31876101c09460018060a01b03169052565b6001600160a01b03166020870152565b8060408601528401906109ce565b9160608184039101526109ce565b9c015260a08d0152151560c08c0152565b151560e08a0152565b1515610100880152565b6101208601526101408501528382036101608501526109ce565b926101808201526101a08184039101526109ce565b90565b34610106576020366003190112610106576004355f818152600160205260409020546001600160a01b039190610aec9083161515610c6a565b805f52600160205261072460405f209283541692610b13600182015460018060a01b031690565b92600482015491600581015495610b376006830154935f52600260205260405f2090565b54600783015491600a84015494610b50600286016118dc565b98610b5d600387016118dc565b9a610b766008610b6f60098a016118dc565b98016118dc565b986040519c8d9c8d9460ff8760101c169760ff808960081c169816966109f3565b610ab0939260609260018060a01b03168252602082015281604082015201906109ce565b346101065760408060031936011261010657600435906107246001610c1f602435855f5282602052828060a01b0395610bfa87875f2054161515610c6a565b805f526002602052610c10865f205483106112e9565b5f526002602052845f20610e8f565b509384541692610c44600286015495610c3d8351809581930161184b565b0383610df9565b5193849384610b97565b34610106575f3660031901126101065760205f54604051908152f35b15610c7157565b60405162461bcd60e51b815260206004820152601060248201526f189bdd5b9d1e481b9bdd08199bdd5b9960821b6044820152606490fd5b15610cb057565b60405162461bcd60e51b81526020600482015260126024820152711cdd589b5a5cdcda5bdb9cc818db1bdcd95960721b6044820152606490fd5b15610cf157565b60405162461bcd60e51b815260206004820152601060248201526f195b5c1d1e4818da5c1a195c9d195e1d60821b6044820152606490fd5b15610d3057565b60405162461bcd60e51b81526020600482015260136024820152726369706865727465787420746f6f206c6f6e6760681b6044820152606490fd5b15610d7257565b60405162461bcd60e51b8152602060048201526011602482015270185b1c9958591e481cdd589b5a5d1d1959607a1b6044820152606490fd5b15610db257565b60405162461bcd60e51b815260206004820152600b60248201526a189bdd5b9d1e48199d5b1b60aa1b6044820152606490fd5b634e487b7160e01b5f52604160045260245ffd5b90601f801991011681019081106001600160401b03821117610e1a57604052565b610de5565b60405190606082018281106001600160401b03821117610e1a57604052565b6001600160401b038111610e1a57601f01601f191660200190565b929192610e6582610e3e565b91610e736040519384610df9565b829481845281830111610106578281602093845f960137010152565b8054821015610ea8575f52600360205f20910201905f90565b634e487b7160e01b5f52603260045260245ffd5b90600182811c92168015610eea575b6020831014610ed657565b634e487b7160e01b5f52602260045260245ffd5b91607f1691610ecb565b601f8211610f0157505050565b5f5260205f20906020601f840160051c83019310610f39575b601f0160051c01905b818110610f2e575050565b5f8155600101610f23565b9091508190610f1a565b91909182516001600160401b038111610e1a57610f6a81610f648454610ebc565b84610ef4565b602080601f8311600114610fab57508190610f9c9394955f92610fa0575b50508160011b915f199060031b1c19161790565b9055565b015190505f80610f88565b90601f19831695610fbf855f5260205f2090565b925f905b888210610ffa57505083600195969710610fe2575b505050811b019055565b01515f1960f88460031b161c191690555f8080610fd8565b80600185968294968601518155019501930190610fc3565b90815468010000000000000000811015610e1a5761103890600193600182018155610e8f565b92909261114157815183546001600160a01b0319166001600160a01b039190911617835560018301906020808401518051926001600160401b038411610e1a5761108c846110868754610ebc565b87610ef4565b602092601f85116001146110cd5750508260029593604095936110c3935f92610fa05750508160011b915f199060031b1c19161790565b90555b0151910155565b929190601f198516906110e3875f5260205f2090565b945f915b83831061112a57505050926001928592600298966040989610611112575b505050811b0190556110c6565b01515f1960f88460031b161c191690555f8080611105565b8486015187559586019594810194918101916110e7565b634e487b7160e01b5f525f60045260245ffd5b634e487b7160e01b5f52601160045260245ffd5b5f1981019190821161117657565b611154565b906001820180921161117657565b908060209392818452848401375f828201840152601f01601f1916010190565b604090610ab0949281528160208201520191611189565b156111c757565b60405162461bcd60e51b815260206004820152601060248201526f3737ba103137bab73a3c9037bbb732b960811b6044820152606490fd5b1561120657565b60405162461bcd60e51b815260206004820152600a6024820152697265656e7472616e637960b01b6044820152606490fd5b1561123f57565b60405162461bcd60e51b815260206004820152600a6024820152691b9bdd081a9d5919d95960b21b6044820152606490fd5b1561127857565b60405162461bcd60e51b8152602060048201526011602482015270185b1c9958591e48199a5b985b1a5e9959607a1b6044820152606490fd5b156112b857565b60405162461bcd60e51b815260206004820152600960248201526818d85b98d95b1b195960ba1b6044820152606490fd5b156112f057565b60405162461bcd60e51b81526020600482015260096024820152680c4c2c840d2dcc8caf60bb1b6044820152606490fd5b3d1561134b573d9061133282610e3e565b916113406040519384610df9565b82523d5f602084013e565b606090565b1561135757565b60405162461bcd60e51b81526020600482015260166024820152751c995dd85c99081d1c985b9cd9995c8819985a5b195960521b6044820152606490fd5b9092916001600160401b038111610e1a576113b481610f648454610ebc565b5f601f82116001146113ed578190610f9c9394955f926113e25750508160011b915f199060031b1c19161790565b013590505f80610f88565b601f19821694611400845f5260205f2090565b915f5b87811061143957508360019596971061142057505050811b019055565b01355f19600384901b60f8161c191690555f8080610fd8565b90926020600181928686013581550194019101611403565b93929160209161146991604087526040870191611189565b930152565b1561147557565b60405162461bcd60e51b815260206004820152600f60248201526e1c995dd85c99081c995c5d5a5c9959608a1b6044820152606490fd5b156114b357565b60405162461bcd60e51b8152602060048201526011602482015270195e1958dd5d1bdc881c995c5d5a5c9959607a1b6044820152606490fd5b156114f357565b60405162461bcd60e51b815260206004820152601060248201526f191958591b1a5b99481a5b881c185cdd60821b6044820152606490fd5b5f1981146111765760010190565b906115539060409396959496606084526060840191611189565b9460208201520152565b1561156457565b60405162461bcd60e51b815260206004820152601060248201526f39bab136b4b9b9b4b7b7399037b832b760811b6044820152606490fd5b156115a357565b60405162461bcd60e51b815260206004820152600e60248201526d185b1c9958591e481a9d5919d95960921b6044820152606490fd5b156115e057565b60405162461bcd60e51b815260206004820152600e60248201526d6e6f207375626d697373696f6e7360901b6044820152606490fd5b81601f8201121561010657805161162c81610e3e565b9261163a6040519485610df9565b8184526020828401011161010657610ab091602080850191016109ad565b91909160608184031261010657604051906001600160401b03906060830182811184821017610e1a5760405282948151838111610106578161169b918401611616565b8452602082015183811161010657816116b5918401611616565b60208501526040820151928311610106576040926116d39201611616565b910152565b9060a082820312610106578151801515810361010657926020830151906001600160401b03918281116101065783611711918601611616565b936040810151838111610106578461172a918301611616565b9360608201518481116101065781611743918401611616565b93608083015190811161010657610ab09201611658565b156117625750565b60405162461bcd60e51b8152602060048201529081906117869060248301906109ce565b0390fd5b906020610ab09281815201906109ce565b156117a257565b60405162461bcd60e51b815260206004820152600f60248201526e686173207375626d697373696f6e7360881b6044820152606490fd5b156117e057565b60405162461bcd60e51b81526020600482015260076024820152661cd95d1d1b195960ca1b6044820152606490fd5b1561181657565b60405162461bcd60e51b815260206004820152600d60248201526c1c99599d5b990819985a5b1959609a1b6044820152606490fd5b80545f939261185982610ebc565b918282526020936001916001811690815f146118bd575060011461187f575b5050505050565b90939495505f92919252835f2092845f945b8386106118a957505050500101905f80808080611878565b805485870183015294019385908201611891565b60ff19168685015250505090151560051b010191505f80808080611878565b906118f0610c3d926040519384809261184b565b565b5f806020928381519101826108025af19061190b611321565b911561195d57815182019060408382840193031261010657808301516001600160401b039081811161010657838361194592870101611616565b50604084015190811161010657610ab0930101611616565b81519101fdfea26469706673582212200aa17942ba6e585d1bd33f89c5dc597a5b9542b32ad4d5472aa019224db31ac264736f6c63430008180033",
  "linkReferences": {},
  "deployedLinkReferences": {},
  "immutableReferences": {},
  "inputSourceName": "project/contracts/SealedBountyJudge.sol",
  "buildInfoId": "solc-0_8_24-65813ff39000f2af7790628b12b199be58e5c0df"
}